:100000000C9437010C945F010C945F010C945F0118
:100010000C945F010C945F010C945F010C945F01E0
:100020000C945F010C945F010C94260B0C94980BBC
:100030000C945F010C945F010C945F010C945F01C0
:100040000C945F010C94FE040C945F010C945F010E
:100050000C945F010C945F010C945F010C942303DA
:100060000C945F010C94FB0D0C94D50D0C945F0166
:100070000C945F010C945F010C945F010C945F0180
:100080000C945F010C945F010C945F010C945F0170
:100090000C944E060C945F010C945F010C945F016C
:1000A0000C945F010C945F010C945F012F133413C7
:1000B000391343134D1325132513251357136113B8
:1000C0006B137513821325138A13B113B313B5136E
:1000D000B713B913BC13BF139301960185018901AE
:1000E0008F01B701B701B7019A019E01A201A801D2
:1000F000AC01B701B20108000000BE922449123ED3
:10010000ABAAAA2ABECDCCCC4C3E00000080BEAB30
:10011000AAAAAA3E00000000BF000000803F000025
:10012000000000084178D3BB4387D1133D190E3C32
:10013000C3BD4282AD2B3E68EC8276BED98FE1A969
:100140003E4C80EFFFBE01C4FF7F3F000000000077
:100150000000000200090F0000030401000C000071
:100160000000000000000000000000000000000788
:100170000605040100080A0B0C0D0900000000240C
:100180000027002A002D0030000000000023002678
:100190000029002C002F00080B00020202010009B8
:1001A00004000001020200000524001001052401E2
:1001B000010104240206052406000107058103103D
:1001C000004009040100020A000000070502024085
:1001D0000000070583024000000403090441726423
:1001E00075696E6F204C4C430041726475696E6F87
:1001F000204C656F6E6172646F0012010002000096
:100200000040412336800001010203011201000277
:10021000EF0201404123368000010102030104087E
:1002200002011040804010204080408008020401FC
:10023000804020100201108010204040200000006B
:1002400000250028002B002E0031000404040404C3
:100250000304050202020204030202020206060669
:1002600006060604040202020404CD15B115112489
:100270001FBECFEFDAE0DEBFCDBF14E0A0E0B1E0FB
:10028000E4EAF9E302C005900D92A83AB107D9F764
:1002900027E0A8EAB4E001C01D92AD3BB207E1F748
:1002A00011E0C6E3D1E004C02197FE010E947D1752
:1002B000C533D107C9F70E9420100C94C51C0C94BB
:1002C0000000FC018485958597FD0BC09FB7F894CD
:1002D00082E08093E9008091F2009FBF90E0019658
:1002E00008959FB7F89482E08093E9008091F2002E
:1002F0009FBF90E0089590E0FC013197EF30F10549
:10030000B0F5E459FF4F0C947D17809180008F77F2
:1003100003C0809180008F7D80938000089580913C
:100320008000877FF9CF84B58F7702C084B58F7D39
:1003300084BD0895809190008F7707C080919000D0
:100340008F7D03C080919000877F809390000895F7
:100350008091C0008F7703C08091C0008F7D809313
:10036000C00008958091C200877F8093C2000895E5
:1003700085ED8093BC008091BC0084FDFCCF109281
:10038000DB0508954091B505262F30E0240F311D7F
:1003900021323105DCF42091DB052430C9F4FC0165
:1003A00080E090E0861758F43091B5052191DC018A
:1003B000AD56BA4FA30FB11D2C930196F3CF809188
:1003C000B505680F6093B50580E0089581E0089554
:1003D00082E0089508958FEF9FEF08958FEF9FEFCC
:1003E00008958091920590E09195819591090895E5
:1003F000CF93DF9300D0CDB7DEB7CB01642F498315
:100400005A830E94C2014981842F5A81952F0F90EF
:100410000F90DF91CF910895CF93DF931F92CDB7C7
:10042000DEB7698361E0CE0101960E94C20181E0DE
:1004300090E00F90DF91CF9108958FE096E00E94B9
:10044000D008892BD1F08FE096E00E94AE08209171
:10045000B1043091B204F901EB54FB4F80832F5F5C
:100460003F4F3093B2042093B104243631052CF36E
:100470001092B2041092B104E0CF0895CF93DF93AD
:10048000282F30E0F901E05BFE4F8491F901E25E34
:10049000FD4FD491F901E55BFD4FC491CC2391F060
:1004A00081110E947B01EC2FF0E0EE0FFF1FE75758
:1004B000FE4FA591B491EC91ED2381E090E021F401
:1004C00080E002C080E090E0DF91CF9108951F931B
:1004D000CF93DF93282F30E0F901E05BFE4F84914A
:1004E000F901E25EFD4FD491F901E55BFD4FC49146
:1004F000CC23C9F0162F81110E947B01EC2FF0E074
:10050000EE0FFF1FE35CFD4FA591B4918FB7F894F8
:10051000111105C09C91ED2FE095E92302C0EC91EB
:10052000ED2BEC938FBFDF91CF911F910895CF9367
:10053000DF9390E0FC01E25EFD4F2491FC01E55B5E
:10054000FD4F8491882361F190E0880F991FFC0191
:10055000E558FE4FC591D491FC01E35CFD4FA59198
:10056000B491611109C09FB7F894888120958223C6
:100570008883EC912E230BC0623061F49FB7F8940E
:100580003881822F809583238883EC912E2B2C93A6
:100590009FBF06C08FB7F894E8812E2B28838FBFAA
:1005A000DF91CF910895823108F08251E82FF0E079
:1005B000E159FE4FE49180917B00E3FB222720F973
:1005C00030E095E0220F331F9A95E1F78F7D282BBD
:1005D00020937B00E770E064E0937C0080917A00D8
:1005E000806480937A0080917A0086FDFCCF8091B0
:1005F00078002091790090E0922B08953FB7F8940D
:100600008091030690910406A0910506B09106061C
:1006100026B5A89B05C02F3F19F00196A11DB11D5D
:100620003FBFBA2FA92F982F8827820F911DA11D98
:10063000B11DBC01CD0142E0660F771F881F991FD5
:100640004A95D1F708951F920F920FB60F92112479
:100650002F933F938F939F93AF93BF938091AB045E
:100660009091AC04A091AD04B091AE04309102061B
:1006700023E0230F2D3720F40196A11DB11D05C0E5
:1006800026E8230F0296A11DB11D20930206809338
:10069000AB049093AC04A093AD04B093AE048091EE
:1006A000030690910406A0910506B09106060196F6
:1006B000A11DB11D8093030690930406A093050627
:1006C000B0930606BF91AF919F918F913F912F916B
:1006D0000F900FBE0F901F9018952F923F924F9240
:1006E0005F926F927F928F929F92AF92BF92CF92C2
:1006F000DF92EF92FF920F931F93CF93DF9300D07F
:10070000CDB7DEB78C0149832A83660F771FF801C6
:10071000EA5AFF4FE080F180EE0CFF1CF801CF0198
:10072000801B910B8E159F0514F41192F8CF8981CF
:10073000F801E60FF71F81838A818083580184E5E1
:10074000A80EB11C60E0F50180810E946702E00EF6
:10075000F11E4801F2E58F0E911C380180E5680E0C
:10076000711CC701801B910B1816190624F5F7019F
:10077000C2907F01F4013080F301208087E0482E91
:10078000512CD12CB601042C02C0759567950A94A2
:10079000E2F761707727822D0E94670261E0832D66
:1007A0000E94670260E0832D0E946702F1E04F1A09
:1007B000510840F7D6CF61E0F50180810F900F908E
:1007C000DF91CF911F910F91FF90EF90DF90CF902D
:1007D000BF90AF909F908F907F906F905F904F9061
:1007E0003F902F900C946702CF92DF92EF92FF928E
:1007F0000F931F93CF93DF938C017B016B0183E0F9
:10080000CC0CDD1C8A95E1F7C1E0D0E0FE01EC0DD7
:10081000FD1DE00FF11F178620E04C2FB701C80126
:100820000E946D032196C930D10581F7DF91CF91E8
:100830001F910F91FF90EF90DF90CF900895CF928E
:10084000DF92EF92FF92CF93DF93EC01603282E070
:1008500078070CF03DC077FD06C0653B71052CF0B4
:1008600064EB70E002C060E070E0898128E830E06D
:100870006901C81AD10887FDD394CC0CDD1CCC0CBF
:10088000DD1C0D2C000CEE08FF088A8128E532E003
:10089000281B310987FD3395220F331F220F331F89
:1008A000C901330FAA0BBB0B9C01AD012C193D09EB
:1008B0004E095F09DB010E94551C24EB30E040E04B
:1008C00050E00E942B1CC20ED31EE41EF51EB60182
:1008D00088818C3080F5998148E850E0491B5109A6
:1008E00097FD5395440F551F440F551F6417750707
:1008F00084F09A8128E532E0291B310997FD339570
:10090000220F331F220F331FAB01261737070CF4BA
:10091000A90142505109440F551F2FB7F89490E098
:10092000FC01EE0FFF1F8E0F9F1FFC01E450F94FDB
:10093000528341832FBFDF91CF91FF90EF90DF90E3
:10094000CF9008951F93CF93DF93EC01162F8881EA
:100950008C3008F04EC061E0812F0E9497028881A0
:10096000E82FF0E09F01220F331FE20FF31FE45046
:10097000F94F1F739081907C192B108319821A8272
:100980006CE00E945D179CE0899FB001112440E05B
:1009900050E09A01260F371FF901EE0FFF1F2E0FAF
:1009A0003F1FF901E450F94F908196FD16C04F5F4B
:1009B0005F4F4C30510569F781110FC010928000D4
:1009C00082E0809381001092850010928400B19A99
:1009D00080916F00826080936F00E881F0E0CF012A
:1009E000880F991FE80FF91FE450F94F8081806448
:1009F00080838881DF91CF911F9108951F920F927C
:100A00000FB60F9211242F933F934F935F936F93E1
:100A10007F938F939F93AF93BF93EF93FF938091B7
:100A2000010687FF05C010928500109284001BC04C
:100A300020910106022E000C330B8091200790E0DC
:100A40002817390784F480910106082E000C990BB1
:100A5000FC01EE0FFF1F8E0F9F1FFC01E450F94FAA
:100A6000808186FD15C0809101068F5F809301060D
:100A700020910106022E000C330B8091200790E09C
:100A800028173907C4F4809101068C3064F113C033
:100A900080910106082E000C990BFC01EE0FFF1F40
:100AA0008E0F9F1FFC01E450F94F808160E08F732F
:100AB0000E946702D8CF80918400909185000496AF
:100AC00080349C4918F480E49CE905C0809184003E
:100AD00090918500049690938900809388008FEF11
:100AE000809301063BC02091840030918500809165
:100AF0000106082E000C990BFC01EE0FFF1F8E0F54
:100B00009F1FFC01E450F94F81819281820F931F56
:100B1000909389008093880080910106082E000C34
:100B2000990BFC01EE0FFF1F8E0F9F1FFC01E4507D
:100B3000F94F808186FF12C080910106082E000CBB
:100B4000990BFC01EE0FFF1F8E0F9F1FFC01E4505D
:100B5000F94F808161E08F730E946702FF91EF91EE
:100B6000BF91AF919F918F917F916F915F914F91C5
:100B70003F912F910F900FBE0F901F90189560E03E
:100B800084E00E94970261E087E00E94970261E0A2
:100B90008BE00E94970260E08CE00E94970260E088
:100BA0008DE00E94970260E086E10E94970261E07A
:100BB00085E00E94970260E085E00E94670260E0A5
:100BC0008BE00E9467028091990790919A0718160E
:100BD000190644F421E04CE060E070E083E497E023
:100BE0000E946D038091990790919A071816190633
:100BF00044F424E04AE060E070E083E497E00E947F
:100C00006D038091990790919A071816190634F48C
:100C100060E070E083E497E00E94F403E0919E07B7
:100C2000F0E0CF01880F991FE80FF91FE450F94F4A
:100C3000808186FF02C08F7B8083E0919B07F0E07C
:100C4000CF01880F991FE80FF91FE450F94F8081F9
:100C500086FF02C08F7B80838091340787FD08C0A8
:100C600061E00E94970260E0809134070E94670271
:100C700081E080932F071092B2041092B104109279
:100C8000B4041092B3048FEF9FEF9093B00480935D
:100C9000AF0410921A051092190508951F920F9231
:100CA0000FB60F9211242F933F934F935F936F933F
:100CB0007F938F939F93AF93BF93EF93FF93809115
:100CC000B900887F803609F49CC068F5883209F441
:100CD0005BC090F4803109F454C038F4882309F4DF
:100CE000F6C0883009F44DC0F6C0883109F44CC014
:100CF000803209F45DC0EFC0803409F468C048F464
:100D0000803309F455C0883309F0E5C08093DA05D3
:100D1000D8C0803509F44FC0883509F45DC08834E7
:100D200009F0D9C0D6C0883909F4C7C0A8F48837FB
:100D300009F467C038F4883609F463C0803709F4D1
:100D400060C0C9C0883809F4B8C0803909F45FC0F0
:100D5000803809F0C0C05BC0803B09F486C038F41D
:100D6000803A09F466C0883A09F47FC0B4C0803C78
:100D700009F4A7C0883C09F4A4C0883B09F48AC0E0
:100D8000AAC08091000610C09091FF058091FE05D9
:100D9000981770F5E091FF0581E08E0F8093FF05B5
:100DA000F0E0E252FA4F80818093BB0085EC86C070
:100DB0008093DA058EC0E091FF0581E08E0F80936D
:100DC000FF058091BB00F0E0E252FA4F80839091E2
:100DD000FF058091FE056EC0E091FF0581E08E0F5A
:100DE0008093FF058091BB00F0E0E252FA4F8083D0
:100DF0008091DD0581116DC081E08093DC0584EA7E
:100E000061C083E08093DB051092D905CFCF80913C
:100E1000D905803208F051C0E091D90581E08E0FEC
:100E20008093D9058091BB00F0E0E754FA4F8083AE
:100E3000BDCF85EC8093BC001092DB058091D90575
:100E4000803230F4E091D905F0E0E754FA4F108297
:100E50006091D90570E0E091B705F091B80589EB94
:100E600095E009951092D90536C084E08093DB05A2
:100E70001092B6051092B505E091B305F091B40556
:100E800009958091B505811105C081E08093B50574
:100E900010929305E091B60581E08E0F8093B60520
:100EA000F0E0ED56FA4F80818093BB009091B6053B
:100EB0008091B505981708F479CF85E88093BC0038
:100EC0000AC085EC8093BC001092DB0504C0109230
:100ED000DA050E94B801FF91EF91BF91AF919F9108
:100EE0008F917F916F915F914F913F912F910F90D3
:100EF0000FBE0F901F901895682F8CEA96E00C9407
:100F00007609CF92DF92FF920F931F93CF93DF93D7
:100F10001F92CDB7DEB7162FF72E082F82E09983E8
:100F20000E947C078EE8C82E85E0D82E412F5F2DC9
:100F3000602F9981792FF6014083518362837383F7
:100F4000812F0E947C07F60181810E947C07F601B7
:100F500082810E947C07F60183810F90DF91CF91FF
:100F60001F910F91FF90DF90CF900C947C07EF9230
:100F7000FF920F931F93CF93DF937C01FC01C481F9
:100F80000C2F158184E00E947C078C2F0E947C0727
:100F9000C0E0D0E0C017D10744F4BE01C7010E94F1
:100FA000940A0E947C072196F5CFDF91CF911F9183
:100FB0000F91FF90EF9008958FEF0E947C0785E5D9
:100FC0000E947C070C942D0E40910A0650910B064E
:100FD000209108063091090642175307B4F4909106
:100FE000E8009570E1F39091E80092FD19C08093BC
:100FF000F10080910A0690910B0601968F73992754
:10100000892B19F48EEF8093E80080910A06909165
:101010000B06019690930B0680930A0681E00895D3
:1010200080E00895CF92DF92EF92FF920F931F938B
:10103000CF93DF931F92CDB7DEB7182F062FE42E84
:10104000862F880F8E5F99830E94E40783E00E94B9
:10105000E407F12EC12E9981D92E8C2D8F1980177E
:1010600098F4F601E7FE02C0849101C080810E94DD
:10107000E407182F80E00E94E4078123FFEFCF1AD6
:10108000DF0A8111EACF01C081E00F90DF91CF919B
:101090001F910F91FF90EF90DF90CF900895DF9216
:1010A000EF92FF920F931F93CF93DF93D82E8A0175
:1010B0007B01E40EF51EEB01CE15DF0571F0D7FEC6
:1010C00003C0FE01849101C088810E94E40721963B
:1010D0008111F2CF8FEF9FEF01C0C801DF91CF9157
:1010E0001F910F91FF90EF90DF900895615030F0C5
:1010F0002091F100FC0120830196F8CF289884E626
:1011000080930D060895CF92DF92EF92FF920F9396
:101110001F93CF93DF936C017A018B01C0E0D0E085
:10112000CE15DF0589F0D8016D918D01D601ED91C5
:10113000FC910190F081E02DC6010995892B11F4F5
:101140007E0102C02196ECCFC701DF91CF911F91A4
:101150000F91FF90EF90DF90CF900895FC01918D5B
:10116000828D981761F0828DDF01A80FB11D5D9609
:101170008C91928D9F5F9F73928F90E008958FEF77
:101180009FEF0895FC01918D828D981731F0828D2B
:10119000E80FF11D858D90E008958FEF9FEF089582
:1011A000FC01918D228D892F90E0805C9F4F821BE6
:1011B00091098F73992708958FE096E00E94D008D7
:1011C00021E0892B09F420E0822F0895FC01848D11
:1011D000DF01A80FB11DA35ABF4F2C91848D90E061
:1011E00001968F739927848FA689B7892C93A0893C
:1011F000B1898C9180648C93938D848D981306C0F3
:101200000288F389E02D80818F7D80830895EF929D
:10121000FF920F931F93CF93DF93EC0181E0888FB0
:101220009B8D8C8D981305C0E889F989808185FD97
:1012300024C0F62E0B8D10E00F5F1F4F0F73112788
:10124000E02E8C8DE8120CC00FB607FCFACFE889AF
:10125000F989808185FFF5CFCE010E94E608F1CFA4
:101260008B8DFE01E80FF11DE35AFF4FF0820B8FCB
:10127000EA89FB898081806207C0EE89FF896083EB
:10128000E889F98980818064808381E090E0DF9142
:10129000CF911F910F91FF90EF900895CF93DF931F
:1012A000EC01888D8823C9F0EA89FB89808185FD5E
:1012B00005C0A889B9898C9186FD0FC00FB607FCBF
:1012C000F5CF808185FFF2CFA889B9898C9185FF00
:1012D000EDCFCE010E94E608E7CFDF91CF910895D0
:1012E0000E94DC0881110C941D020895CF93DF93B6
:1012F0001F92CDB7DEB76983DC01ED91FC910280CE
:10130000F381E02D41E050E0BE016F5F7F4F099512
:101310000F90DF91CF91089583E08093E900809151
:10132000F200882319F08AE38093E80008950E9470
:101330001B1B0F931F93CF93DF931F92CDB7DEB785
:1013400082E0898342E450E067E971E080E80E942E
:101350004F080E940C10DC0112960D911C911397FE
:101360000115110569F0D801ED91FC910280F3811E
:10137000E02DBE016F5F7F4FC801099597FF07C041
:1013800089810F90DF91CF911F910F910895F801FE
:1013900000851185E5CF8F929F92AF92BF92CF9239
:1013A000DF92EF92FF920F931F93CF93DF935C0135
:1013B0006B018A0180910B01882309F459C0809147
:1013C0000E06882309F454C08091A90480FF05C04B
:1013D0008091E00082608093E000E8018AEFF82EBF
:1013E00093E0E92E2FE3822E3AE3932E2097C9F162
:1013F0008FB7F894E092E9009091E80095FF06C05D
:101400009091F200282D291B922F01C090E08FBFF0
:10141000911106C0FA94FF2059F10E94F20FE6CF15
:10142000292F30E0C217D3070CF49C2F8FB7F89404
:10143000E092E9002091E80025FF11C0292F30E05B
:10144000C21BD30BF601915020F041914093F10063
:10145000FACFC20ED31E9091E80095FF13C08FBF44
:10146000C5CF5D9884E680930C061016110644F0F3
:1014700081E090E0F5019383828380E090E005C0F5
:10148000C80103C09092E800EACFDF91CF911F918D
:101490000F91FF90EF90DF90CF90BF90AF909F9013
:1014A0008F900895CF93DF931F92CDB7DEB7FC01E5
:1014B0008485958597FD05C02FEF3FEF35872487FD
:1014C0000BC0CE0101960E94C80F019719F48981C3
:1014D00090E002C08FEF9FEF0F90DF91CF910895C2
:1014E0000F931F93CF93DF931F92CDB7DEB78C017D
:1014F000FC018485958597FF0EC0CE0101960E9460
:10150000C80F019719F4298130E002C02FEF3FEF97
:10151000F80135872487F801848595850F90DF9140
:10152000CF911F910F910895FC012481358162179D
:10153000730748F480819181009729F0FC01E60F40
:10154000F71F8081089580E008950F931F93CF9334
:10155000DF93EC0188819981009729F02A813B81F2
:101560002617370788F48B016F5F7F4F0E94511A4F
:10157000009761F0998388831B830A832C813D81C6
:10158000232B11F4FC01108281E001C080E0DF9187
:10159000CF911F910F910895EF92FF920F931F9398
:1015A000CF93DF93EC017B018A01BA010E94A50A67
:1015B0002881398181110DC02115310519F0C9012A
:1015C0000E94B919198218821D821C821B821A82FC
:1015D00006C01D830C83B701C9010E94291BCE01DF
:1015E000DF91CF911F910F91FF90EF900895FB0134
:1015F000DC0111961C921E9213961C921E92129759
:1016000015961C921E9214978617970749F06081D1
:1016100071816115710521F0448155810C94CC0ACA
:101620000895FC01118210821382128215821482A5
:101630006115710551F0FB0101900020E9F7319728
:10164000AF01461B570B0C94CC0A08951F920F92C2
:101650000FB60F9211248F939F938091E100909188
:10166000E100937F9093E10083FF0FC01092E900A7
:1016700091E09093EB001092EC0092E39093ED00D8
:1016800010920E0698E09093F00082FF20C093E045
:101690009093E9009091F200992319F09AE39093C6
:1016A000E80090910C06992339F090910C06915026
:1016B00090930C06992389F190910D06992339F0A6
:1016C00090910D06915090930D06992341F184FF5E
:1016D00010C08091E2008E7E81608093E200809154
:1016E000E1008F7E8093E1008091A9048E7E80616D
:1016F00011C080FF16C08091E2008E7E80618093D1
:10170000E2008091E1008E7E8093E1008091A90447
:101710008E7E81608093A90404C05D9ACDCF289A03
:10172000D6CF9F918F910F900FBE0F901F9018955D
:101730001F920F920FB60F921124CF92DF92EF9269
:10174000FF920F931F932F933F934F935F936F934A
:101750007F938F939F93AF93BF93EF93FF93CF9319
:10176000DF93CDB7DEB76C97DEBFCDBF1092E90037
:101770008091E80083FFFAC168E0CE0145960E949F
:10178000760882EF8093E8008D8987FF05C09091ED
:10179000E80090FFFCCF03C09EEF9093E800982FE5
:1017A000907609F0C6C09E892F89188D91110CC0C2
:1017B000803829F48091AA048093F10002C010922D
:1017C000F1001092F10047C1422F50E0512B9130AF
:1017D00051F4811140C14130510509F03CC1809163
:1017E000AA048D7F0BC0933061F4811134C1413064
:1017F000510509F030C18091AA0482608093AA0447
:101800002AC1953041F48091E80080FFFCCF206828
:101810002093E30020C1963009F05FC0EB8CFC8C74
:101820001092E90010920B0610920A06123091F500
:1018300010920906109208060E94990999E0BE01CB
:101840006F5F7F4FDB01E92F1D92EA95E9F79983DE
:101850001A8391E09E8390EA98879AEF9987209166
:101860000A0630910B06275F3F4F3C832B838D8305
:101870001092E90010920B0610920A06F0920906E7
:10188000E092080649E050E080E00E944F080E9484
:101890009909E1C0F0920906E09208060E940C1036
:1018A000DC011296ED90FC901397E114F10409F419
:1018B000C0C0D701ED91FC910480F581E02DBE01FF
:1018C0006B5E7F4FC7010995009719F00CF0C3C0FC
:1018D000C6C0F701E084F184E8CF973009F4BFC0B7
:1018E000983021F481E08093F100B5C0993009F07F
:1018F000B2C0837009F0B3C0E7E6F4E081E021E014
:1019000036E39081992361F08093E9002093EB0006
:1019100091919093EC003093ED008F5F873089F7C1
:101920008EE78093EA001092EA008F8980930E067A
:1019300092C08B8D9C8D1092E90010920B06109234
:101940000A069093090680930806898D811156C076
:101950008E899D89913A59F4813209F080C047E01F
:1019600050E064E071E080E00E944F0874C0913262
:1019700009F075C0833289F4888D90E0982F88270C
:101980002F89822BA0E0B0E08093000190930101A9
:10199000A0930201B09303015EC0803269F480918C
:1019A000E80082FFFCCF67E084E091E00E947608C7
:1019B0008BEF8093E80006C0823209F04CC08F891B
:1019C00080930B018091A804882319F0EEEFFAE0D0
:1019D00002C0E0E0F8E08091040190910501A0913F
:1019E0000601B0910701803B9440A105B10509F0C3
:1019F00088C080910B0180FFA0C083C00E940C10A2
:101A0000DC0112960D911C9113970115110539F106
:101A1000D801ED91FC910190F081E02DBE016B5E4B
:101A20007F4FC8010995811116C0F8010085118505
:101A3000ECCF1130C1F0133091F48F89882309F471
:101A400055C08230E9F440E860E189EE91E00E94FF
:101A50001208882321F08EEF8093E80087C081E28E
:101A60008093EB0083C08B8D9C8D089711F41093AD
:101A7000070680910706811136C06AEF71E038C011
:101A8000813029F440E86BE08DED91E0E0CF8330C8
:101A900031F70E940C10DC011296ED90FC90139728
:101AA0008E010F5F1F4F6801E114F10479F0D70137
:101AB000ED91FC910680F781E02DB801C7010995F1
:101AC000080F111DF701E084F184EECFD8011C92BC
:101AD000F60101900020E9F73197BF016C197D09EB
:101AE00040E0C601B4CF6CE072E002C069ED71E085
:101AF0006115710509F4B3CFFB01449150E080E812
:101B000033CF0FB6F894A8958091600088618093D8
:101B10006000109260000FBEA895EE3F2AE0F20729
:101B200039F08091FE0A9091FF0A9183808393CFD0
:101B30001092FF0A1092FE0A8ECFEE3F8AE0F8075D
:101B400031F0808191819093FF0A8093FE0A87E7AC
:101B500097E7918380839BE088E10FB6F894A8957E
:101B6000809360000FBE9093600075CF6C960FB6A7
:101B7000F894DEBF0FBECDBFDF91CF91FF91EF9103
:101B8000BF91AF919F918F917F916F915F914F9195
:101B90003F912F911F910F91FF90EF90DF90CF9089
:101BA0000F900FBE0F901F9018951F920F920FB6B7
:101BB0000F9211242F933F934F935F936F937F93D3
:101BC0008F939F93AF93BF93EF93FF938FE096E034
:101BD0000E94E608FF91EF91BF91AF919F918F9185
:101BE0007F916F915F914F913F912F910F900FBE19
:101BF0000F901F9018951F920F920FB60F921124FD
:101C00002F938F939F93EF93FF93E0911F06F09193
:101C100020068081E0912506F091260682FD12C003
:101C20009081809128068F5F8F73209129068217FB
:101C300051F0E0912806F0E0E15FF94F958F809335
:101C4000280601C08081FF91EF919F918F912F9184
:101C50000F900FBE0F901F901895E091AC06F09179
:101C6000AD060280F381E02D42E050E065EA74E0C9
:101C70008CEA96E00994262F4091990750919A0793
:101C8000141615067CF48830910560F4FC01ED5BB8
:101C9000F84F608B41E0480F60E070E083E497E02C
:101CA0000C946D03089520E830E002C03595279527
:101CB0006A95E2F7FC01ED5BF84F442319F0308997
:101CC000232B03C0209530892323208B41E0480F2C
:101CD000208960E070E083E497E00C946D03EF925C
:101CE000FF920F931F93CF93DF938C01FC01E4804D
:101CF000F580C0E0D0E0CE15DF0594F4BE01C80148
:101D00000E94940A682F8D3011F08A3011F42196C8
:101D1000F2CF8535E1F38FE096E00E940709F7CF17
:101D2000DF91CF911F910F91FF90EF9008950F9346
:101D30001F93CF93DF93CDB7DEB729970FB6F894F3
:101D4000DEBF0FBECDBF0E94FE0200913C07109186
:101D50003D0720913E0730913F07DC01CB01801BFE
:101D6000910BA20BB30B8C329140A105B10558F336
:101D7000F89480913207909133079A838983E09198
:101D80003607F0913707DF0111968081898790919E
:101D90002E07E0914007F091410780914207992377
:101DA00009F42EC09081982B988790818095892383
:101DB0008F838F818C8388E08B8358856F814985E1
:101DC0003B812C8189819A81508347FD252F3A954B
:101DD0002083262F39F0441F00C0000060830000DC
:101DE00000C0F2CF38E04D9160830000019761F7A9
:101DF000F0934107E093400749873B832C8338C029
:101E00009081982B98879081809589238F838F81EB
:101E10008E8388E08D8358856F8149853D812E8131
:101E200089819A81508347FD252F00C000C02083FF
:101E300000C000C000C000C000C060830000262FAA
:101E40003A9541F0441F000000C000C000C000C02F
:101E500000C0E8CF38E04D9100C0608300C001971A
:101E600009F7F0934107E093400749873D832E83AC
:101E70009A83898378940E94FE0260933C07709352
:101E80003D0780933E0790933F0729960FB6F8943D
:101E9000DEBF0FBECDBFDF91CF911F910F9108958F
:101EA0002091300730913107232B81F120913507A4
:101EB000222361F0829FC0011124892F629FB0010B
:101EC0001124672F429FA0011124452F90913B07B9
:101ED000509138072091360730913707951721F038
:101EE000F901E90FF11D108290913807F901E90F0E
:101EF000F11D808380913907F901E80FF11D60839E
:101F000080913A07F901E80FF11D408308951F936E
:101F1000CF93DF9311E0180F209135071217A1F12D
:101F2000C0913607D09137072150B9F08F3F59F44F
:101F300030E040E050E06FEF7FEF80E090E00E9403
:101F40002B1CB9010CC0812F90E0982F8827019796
:101F5000622F70E00E94691702C060E070E0FE012D
:101F60004091320750913307CF018C1B9D0B841792
:101F7000950740F44081469FC001479F900D112472
:101F80009193EECF10933507DF91CF911F91089574
:101F9000FC0180910E06811103C08FEF9FEF089521
:101FA0009FB7F89482E08093E9002091F20030E03E
:101FB0001216130614F421E030E02115310559F012
:101FC000289884E680930D068091F10080838091AB
:101FD000F200882319F09FBFC90108958BE6809312
:101FE000E800F9CFCF92DF92EF92FF920E94FE02BB
:101FF0006B017C010E94FE02DC01CB018C199D0962
:10200000AE09BF09883E9340A105B10598F3FF9042
:10201000EF90DF90CF9008958091A50781110DC0BA
:1020200082E08093A10784E08093A2071092A40726
:102030001092A30781E08093A50781EA97E00895B5
:10204000CF93DF93CDB7DEB764970FB6F894DEBFBA
:102050000FBECDBF789484B5826084BD84B58160A5
:1020600084BD85B5826085BD85B5816085BD809163
:102070006E00816080936E001092810080918100DB
:1020800082608093810080918100816080938100D3
:1020900080918000816080938000809191008260B7
:1020A0008093910080919100816080939100809154
:1020B00090008160809390008091C1008460809343
:1020C000C1008091C10082608093C1008091C100F5
:1020D00081608093C1008091C30081608093C300C0
:1020E0008091C00082608093C0008091C2008160B6
:1020F0008093C20080917A00846080937A008091FE
:102100007A00826080937A0080917A008160809367
:102110007A0080917A00806880937A0010920E068F
:102120001092AA041092A9048091D7008160809334
:10213000D70080EA8093D80089B5806189BD89B5D0
:10214000826089BD09B400FEFDCF0E94F20F80912C
:10215000D8008F7C80618093D8008091E000807FE0
:102160008093E0008091E1008E7E8093E1008DE01D
:102170008093E200559A209AEEEFFFE785919491C3
:102180008B3F9C4D19F481E08093A8048FEF9FEF63
:102190009093B9068093B806E0911F06F09120064F
:1021A00082E08083E0911B06F0911C061082E09192
:1021B0001D06F0911E068FEC808310922706E09199
:1021C0002306F091240686E08083E0912106F091B9
:1021D0002206808180618083E0912106F0912206B1
:1021E000808188608083E0912106F09122068081C1
:1021F00080688083E0912106F091220680818F7DA6
:10220000808387E297E00E94BF05B7E0AB2EB12C38
:1022100060E081E10E9467022FB7F8946091AB04FF
:102220007091AC048091AD049091AE042FBF0E94D8
:10223000301B20E030E04AE754E40E94F717609337
:102240008A0570938B0580938C0590938D05109271
:1022500089058CEA96E00E946101181619065CF463
:1022600081E08093890510921B058CEA96E00E941C
:10227000520A8093880580918905882309F46EC4E9
:102280008091880590918705853561F491110AC088
:10229000809186058F3FE1F481E0809385058093EE
:1022A000870516C080938605992391F0E0918505F6
:1022B000E23019F48093840507C0E33028F0909150
:1022C0008405915090938405F0E0E05BFA4F8083A1
:1022D000809185058F5F843318F48093850504C051
:1022E000109285051092870580918705882309F44F
:1022F00035C480918405811131C480918505843075
:1023000008F42CC4109287050091530510915505CF
:1023100090915405923009F435C118F4913041F090
:102320001BC4943009F416C4953009F413C414C4C2
:102330008FEF0E947C0785E50E947C07802F0E941A
:102340007C07809156051435D1F148F41234E9F137
:102350001335C1F0111113C161E277E082C01B3562
:1023600009F48CC038F4153509F009C182E10E94E6
:10237000D302FDC01C3509F4DFC01D3509F0FFC0D4
:1023800086E1F3C084E00E943E022091AF043091C8
:10239000B0042F3F4FEF340729F49093B00480939B
:1023A000AF040AC02817390739F09093B00480931E
:1023B000AF0461E070E0D4C060E070E0D1C0813073
:1023C00011F48CE0D2C08DE0D0C040E050E067EA6C
:1023D00074E088E297E00E94CC0A8091B304909167
:1023E000B4042091B1043091B20482179307B9F17B
:1023F000FC01EB54FB4F808189831A8200912C07EA
:1024000010912D070F5F1F4FB80188E297E00E94DF
:10241000A50A882399F020912807309129078091F7
:102420002C0790912D07BE016F5F7F4F820F931F86
:102430000E94291B10932D0700932C078091B30451
:102440009091B40401969093B4048093B3048436BD
:1024500091051CF21092B4041092B304BECF68E24E
:1024600077E0CE0101960E94F70ACE0101960E9404
:10247000B70789819A810E94B91981C083E10E94BE
:10248000D302BC01990F880B990B0E94321B6B0180
:102490007C012EEA37E441E251E40E946D1B2B01DE
:1024A0003C01A701960160E070E080E894E40E949E
:1024B0008A179B01AC01C301B2010E94F71720E00B
:1024C00030E040EA51E40E94F7170E94A71820E08C
:1024D00030ED4AE755E40E94F7172FE03FEC4BE55B
:1024E0005BE30E948B179B01AC0160E070E080E829
:1024F0009FE30E94F71723E333E948E853E40E947F
:102500008A1720E030E040EA51E40E948A176B010C
:102510007C016091190570911A05072E000C880B3B
:10252000990B0E94321B9B01AC01C701B6010E94AE
:102530008B170E94691814C0813011F484E101C026
:1025400085E10E94D30260E072E0681B790B925033
:10255000880F991F660F771F681779070CF4BC0165
:10256000072E000C880B990B06C00E943E02BC018E
:10257000990F880B990B0E94321B0E9481070E94C1
:102580002D0EEAC20091560567EA74E0CE01079667
:102590000E94110B173409F4CEC208F51F3309F459
:1025A0002BC270F4123209F418C11E3309F4FAC1B7
:1025B000113009F0CBC287E297E00E94BF05C6C286
:1025C000113409F483C208F451C2133409F0BEC2B5
:1025D000802F90E0A7E5B5E0EEE1F5E073C1183596
:1025E00009F49CC150F4113509F4A1C0123509F465
:1025F000D9C0103509F0AAC209C01A3509F474C24D
:1026000008F4AEC11E3509F48BC2A0C20091570573
:10261000002321F0083C28F410E005C000E010E0A1
:1026200002C008EC10E061E085E00E94970201150D
:10263000110511F460E00DC0E5E5F1E0849190E052
:10264000FC013197EF30F10530F00038110594F3BB
:1026500061E085E06DC2EA5AFF4F0C947D1784B5A6
:10266000806884BD07BD72C284B5806284BD08BD28
:102670006DC28091800080688093800010938900F3
:102680000093880063C28091800080628093800004
:1026900010938B0000938A0059C28091800088605B
:1026A0008093800010938D0000938C004FC2809126
:1026B0009000806880939000109399000093980098
:1026C00045C28091900080628093900010939B009F
:1026D00000939A003BC280919000886080939000A4
:1026E00010939D0000939C0031C28091C0008068CF
:1026F0008093C0008091C0008F7B8093C0000093C6
:10270000CF0024C28091C00080628093C0000093FB
:10271000D0001CC28091C20088608093C20080916A
:10272000C2008B7F8093C2000093D2000FC28091C1
:10273000570510915805882329F08F3F29F48FEF12
:1027400090E002C080E090E00E94870F812F90E02F
:10275000FC013197E730F105B0F4EB59FF4F0C94D1
:102760007D174FEF07C040E00BC040E006C04FEFC1
:102770000BC040E06FEF05C04FEF6FEF06C04FEFAB
:1027800060E08FEF03C040E060E080E00E94500F07
:102790008091360790913707892B09F4D7C10E94A1
:1027A000970ED4C120915705109158056091590595
:1027B00040915A05222321F02F3F29F0822F05C096
:1027C00080E090E002C08FEF90E04C8B6B8B0E941A
:1027D000870F4C896B89812FD9CF809157058093C2
:1027E0001C058091580580931D0580901C059090D4
:1027F0001D058091590580931C0580915A05809391
:102800001D0500911C0510911D05101611061CF4E4
:102810008114910419F460E08BE08AC16401E12C19
:10282000F12C60E472E48FE090E0A70196010E9431
:102830002B1C69017A0128EE33E0D8010E9483172E
:102840006F87788B898B9A8B8601D7FE02C00F5FCA
:102850001F4F159507951801220C331C220C331CB1
:10286000F5E02F1A31080D2C000CEE08FF08412C62
:10287000512C320121E08216910411F460E001C074
:1028800061E08BE00E9467020230110518F0C1017F
:102890000197F1F760E08BE00E94670202301105BA
:1028A00018F0C1010197F1F74C0C5D1C6E1C7F1CE8
:1028B0008F859889A989BA89481659066A067B06C0
:1028C000C8F244C19F012E513540281739071CF426
:1028D0002D912193F7CFFC01E25EFA4F1082EEE1D9
:1028E000F5E001900020E9F73197AF014E515540D6
:1028F0006EE175E0CE0107960E94CC0ABE01695FC9
:102900007F4FCE0101960E94F70ACE0101960E94E8
:102910006F0E89819A810E94B91918C110915705CB
:1029200080919E0790E0FC01EE0FFF1F8E0F9F1F0E
:10293000FC01E450F94F808186FD06C069E070E03B
:102940008EE997E00E94A2041F3120F0163918F09A
:1029500016E901C01EE1612F70E08EE997E01FC00B
:102960001091570580919B0790E0FC01EE0FFF1F2F
:102970008E0F9F1FFC01E450F94F808186FD06C039
:102980006AE070E08BE997E00E94A204112319F03D
:10299000143B08F014EB612F70E08BE997E00E9484
:1029A0001F04D4C090915705809158054091590556
:1029B0002091990730919A07413069F41216130655
:1029C0000CF0C4C0883008F0C1C0B501691B7109A2
:1029D00077FDBCC00DC0121613060CF0B7C08830CE
:1029E00008F0B4C0B501691B710977FDAFC040E0C4
:1029F00090E00E94530EAAC00091570598E0099FED
:102A0000800111240A5E1E4FD8016C9180E090E095
:102A10000E943B0EF801618181E090E00E943B0E34
:102A2000D80112966C9182E090E00E943B0EF80172
:102A3000638183E090E00E943B0ED80114966C9174
:102A400084E090E00E943B0EF801658185E090E013
:102A50000E943B0ED80116966C9186E090E00E9491
:102A60003B0EF801678187E090E057C00091570561
:102A7000E09058058091990790919A0718161906C9
:102A80000CF064C0083008F061C0C12CD12CF12CCE
:102A900010E08091990790919A071816190674F41E
:102AA000C5018C199D09A70102C0559547958A95C6
:102AB000E2F74170B801C6010E94530EFFEFCF1A32
:102AC000DF0A28E0C216D10421F740C0809199079F
:102AD00090919A0718161906CCF560E070E083E42F
:102AE00097E00E94F40332C03091570520915805B9
:102AF00089E090E060E070E0019761F0660F771F79
:102B0000422F41704D871E86AD85BE856A2B7B2B7B
:102B10002695F2CFC501831B91090E943B0E16C07A
:102B200080915705813011F461E001C060E087E0D9
:102B30000E9467020BC020915705822F90E0203839
:102B400008F09A9590931A05809319058F819885BE
:102B50000E94B9190E94DC07109285050E94700935
:102B600057CB80912107909122070E94B91980913B
:102B70002807909129070E94B919809136079091F2
:102B80003707009711F00E94B9198091340787FD2B
:102B900003C060E00C9497020895CF93DF931092E6
:102BA00012061092110688EE93E0A0E0B0E0809348
:102BB000130690931406A0931506B093160621E70A
:102BC00034E03093100620930F062DEC30E0309364
:102BD0001C0620931B062CEC30E030931E0620933D
:102BE0001D0628EC30E03093200620931F0629ECC8
:102BF00030E030932206209321062AEC30E0309317
:102C00002406209323062EEC30E0309326062093F2
:102C10002506109228061092290610922A06109274
:102C20002B061092AF061092AE068093B0069093DA
:102C3000B106A093B206B093B30681E894E09093F6
:102C4000AD068093AC068FEF9FEF9093B90680930B
:102C5000B806809120078C30A0F491E0980F9093F3
:102C6000200780939E0790E0FC01EE0FFF1F8E0F60
:102C70009F1FFC01E450F94F88EB9BE09283818316
:102C800003C08FEF80939E07809120078C30A0F4C3
:102C900091E0980F9093200780939B0790E0FC01B0
:102CA000EE0FFF1F8E0F9F1FFC01E450F94F88EBC2
:102CB0009BE09283818303C08FEF80939B07C0E1E9
:102CC000D0E0D0939407C09393078FE090E0909367
:102CD0009607809395078EE090E0909398078093F5
:102CE000970781E090E090939A078093990761E0BD
:102CF00080E10E94970261E0809195070E9497020F
:102D000061E0809197070E94970261E080919707A8
:102D10000E946702D0939407C0939307E3E5F7E01E
:102D2000119287E0E339F807D9F7C0E0D0E080914D
:102D3000990790919A07C817D907E4F520E04FE06A
:102D4000BE0183E497E00E946D03D7FD0EC0809121
:102D5000990790919A07C817D9073CF427E04BE0F0
:102D6000BE0183E497E00E946D0320E049E0BE01CC
:102D700083E497E00E946D03D7FD1AC08091990704
:102D800090919A07C817D9072CF4BE0183E497E005
:102D90000E94F4038091990790919A07C817D90768
:102DA0003CF420E04CE0BE0183E497E00E946D0318
:102DB0002196BDCF10922F071092350710923C0735
:102DC00010923D0710923E0710923F0710923B076A
:102DD0001092380781E08093390792E090933A0788
:102DE00080932E0783E090E090933307809332071F
:102DF0000E9424199093370780933607009759F063
:102E0000FC0110821182128281E090E090933107E0
:102E10008093300708C01092330710923207109247
:102E200031071092300788E08093340780912F0794
:102E3000882341F061E088E00E94970260E088E02A
:102E40000E946702E3E5F2E0E491F0E0EE0FFF1F7D
:102E5000E35CFD4F859194919093410780934007E7
:102E6000E6E2F2E0E491E093420767EA74E088E288
:102E700097E00E94110B1092B0071092AF0788EEF6
:102E800093E0A0E0B0E08093B1079093B207A093E5
:102E9000B307B093B40781E994E09093AE078093B1
:102EA000AD0787E297E00E94BF056DE974E081E21B
:102EB00097E0DF91CF910C94110B991B79E004C03E
:102EC000991F961708F0961B881F7A95C9F7809569
:102ED0000895AA1BBB1B51E107C0AA1FBB1FA61761
:102EE000B70710F0A61BB70B881F991F5A95A9F7B3
:102EF00080959095BC01CD010895EE0FFF1F0590C0
:102F0000F491E02D09940E94B61CB7FF0895821B2E
:102F1000930B08955058BB27AA270E94A2170C9420
:102F2000F11B0E94E31B38F00E94EA1B20F039F4E9
:102F30009F3F19F426F40C94E01B0EF4E095E7FB98
:102F40000C94DA1BE92F0E94021C58F3BA1762078F
:102F500073078407950720F079F4A6F50C94241CD8
:102F60000EF4E0950B2EBA2FA02D0B01B9019001A4
:102F70000C01CA01A0011124FF27591B99F0593FE8
:102F800050F4503E68F11A16F040A22F232F342F30
:102F90004427585FF3CF469537952795A795F0407E
:102FA0005395C9F77EF41F16BA0B620B730B840B93
:102FB000BAF09150A1F0FF0FBB1F661F771F881F4B
:102FC000C2F70EC0BA0F621F731F841F48F48795A3
:102FD00077956795B795F7959E3F08F0B0CF939595
:102FE000880F08F09927EE0F9795879508950E940E
:102FF0000B180C94F11B0E94EA1B58F00E94E31B73
:1030000040F029F45F3F29F00C94DA1B51110C9425
:10301000251C0C94E01B0E94021C68F39923B1F359
:10302000552391F3951B550BBB27AA2762177307EE
:10303000840738F09F5F5F4F220F331F441FAA1F82
:10304000A9F335D00E2E3AF0E0E832D0915050403E
:10305000E695001CCAF72BD0FE2F29D0660F771FEC
:10306000881FBB1F261737074807AB07B0E809F0D2
:10307000BB0B802DBF01FF2793585F4F3AF09E3F57
:10308000510578F00C94DA1B0C94251C5F3FE4F397
:10309000983ED4F3869577956795B795F7959F5F9A
:1030A000C9F7880F911D9695879597F90895E1E0E6
:1030B000660F771F881FBB1F621773078407BA0745
:1030C00020F0621B730B840BBA0BEE1F88F7E095A0
:1030D00008950E9470186894B1110C94251C0895ED
:1030E0000E940A1C88F09F5798F0B92F9927B75172
:1030F000B0F0E1F0660F771F881F991F1AF0BA959C
:10310000C9F714C0B13091F00E94241CB1E00895B9
:103110000C94241C672F782F8827B85F39F0B93FAB
:10312000CCF3869577956795B395D9F73EF490954E
:103130008095709561957F4F8F4F9F4F089516F042
:103140000C94EF180C94E01B68940C94DA1B0E940A
:103150000A1CA8F39923C1F3AEF3DF93CF931F9317
:103160000F93FF92C92FDD2788232AF02197660F3E
:10317000771F881FDAF720E030E040E85FEB9FE33D
:10318000883920F0803E38F021968F770E948B1787
:10319000E6EFF0E004C00E948B17E3E2F1E00E944A
:1031A000FD188B01BE01EC01FB2E6F57710975955F
:1031B000771F880B990B0E94321B28E132E741E30D
:1031C0005FE30E94801BAF2D9801AE01FF900F912D
:1031D0001F91CF91DF910E94A2170C94F11B9F3F8A
:1031E00031F0915020F4879577956795B795880FC2
:1031F000911D9695879597F90895DF93CF931F9327
:103200000F93FF92EF92DF927B018C01689406C0CE
:10321000DA2EEF010E94801BFE01E894A591259112
:10322000359145915591A6F3EF010E94A217FE0139
:103230009701A801DA9469F7DF90EF90FF900F9162
:103240001F91CF91DF910895CF93DF938230910545
:1032500010F482E090E0E091BB07F091BC0720E021
:1032600030E0C0E0D0E0309711F140815181481743
:103270005907C0F04817590761F48281938120975C
:1032800019F09B838A832BC09093BC078093BB0764
:1032900026C02115310519F04217530718F49A0179
:1032A000BE01DF01EF010280F381E02DDCCF2115AB
:1032B000310509F1281B390B2430310590F41296A1
:1032C0008D919C9113976115710521F0FB019383FA
:1032D000828304C09093BC078093BB07FD013296A4
:1032E00044C0FD01E20FF31F8193919322503109F5
:1032F0002D933C933AC02091B9073091BA07232B04
:1033000041F420910E0130910F013093BA072093C0
:10331000B90720910C0130910D012115310541F4BF
:103320002DB73EB74091100150911101241B350B70
:10333000E091B907F091BA07E217F307A0F42E1B4A
:103340003F0B2817390778F0AC014E5F5F4F241709
:10335000350748F04E0F5F1F5093BA074093B907E7
:103360008193919302C0E0E0F0E0CF01DF91CF9133
:1033700008950F931F93CF93DF93009709F48CC0A8
:10338000FC013297138212820091BB071091BC0797
:103390000115110581F420813181820F931F209145
:1033A000B9073091BA072817390779F5F093BA07AA
:1033B000E093B90771C0D80140E050E0AE17BF07F5
:1033C00050F412962D913C911397AD0121153105C2
:1033D00009F1D901F3CF9D01DA01338322836081A2
:1033E0007181860F971F8217930769F4EC0128817A
:1033F0003981260F371F2E5F3F4F318320838A810B
:103400009B8193838283452B29F4F093BC07E0933F
:10341000BB0742C01396FC93EE931297ED014991BE
:1034200059919E01240F351FE217F30771F4808133
:103430009181840F951F029611969C938E938281A1
:10344000938113969C938E931297E0E0F0E0D8015D
:1034500012968D919C911397009719F0F8018C01A9
:10346000F6CF8D919C9198012E5F3F4F820F931F55
:103470002091B9073091BA072817390769F43097B6
:1034800029F41092BC071092BB0702C0138212826B
:103490001093BA070093B907DF91CF911F910F9155
:1034A0000895A0E0B0E0E7E5FAE10C94611CEC01BE
:1034B000009721F4CB010E942419B8C0FC01E60F4B
:1034C000F71F9C0122503109E217F30708F4ACC042
:1034D000D9010D911C91119706171707B0F005300F
:1034E000110508F49FC0C80104978617970708F4D0
:1034F00099C002501109061B170B019311936D938C
:103500007C93CF010E94B9198DC05B01A01AB10A4A
:103510004C01800E911EA091BB07B091BC0740E00A
:1035200050E0E12CF12C109709F44AC0A815B90518
:10353000D1F56D907C901197630182E0C80ED11C8B
:10354000CA14DB0480F1A3014A195B096A0182E015
:10355000C80ED11C1296BC9012971396AC91B5E090
:10356000CB16D10440F0B282A38351834083D901AA
:103570006D937C930AC00E5F1F4FC301800F911F94
:10358000F90191838083EB2DFA2FE114F10431F0DE
:10359000D7011396FC93EE93129744C0F093BC07A7
:1035A000E093BB073FC08D919C9111974817590735
:1035B00008F4AC017D0112960D90BC91A02DB3CF03
:1035C0008091B9079091BA0788159905E1F44617DB
:1035D0005707C8F480910C0190910D01009741F4B8
:1035E0008DB79EB74091100150911101841B950B2E
:1035F000E817F907C8F4F093BA07E093B907F9019F
:10360000718360830FC0CB010E9424197C01009755
:1036100059F0A801BE010E94201BCE010E94B919D9
:10362000C70104C0CE0102C080E090E0CDB7DEB794
:10363000EEE00C947D1C81E090E0F8940C94C51CA5
:10364000FB01DC0102C001900D9241505040D8F7BF
:103650000895FB01DC0101900D920020E1F708952F
:10366000E89409C097FB3EF490958095709561951C
:103670007F4F8F4F9F4F9923A9F0F92F96E9BB27D2
:103680009395F695879577956795B795F111F8CF4E
:10369000FAF4BB0F11F460FF1BC06F5F7F4F8F4FB9
:1036A0009F4F16C0882311F096E911C0772321F0AF
:1036B0009EE8872F762F05C0662371F096E8862F47
:1036C00070E060E02AF09A95660F771F881FDAF79E
:1036D000880F9695879597F908950E94801B0C9402
:1036E000F11B0E94E31B38F00E94EA1B20F0952397
:1036F00011F00C94DA1B0C94E01B11240C94251C83
:103700000E94021C70F3959FC1F3950F50E0551F66
:10371000629FF001729FBB27F00DB11D639FAA2726
:10372000F00DB11DAA1F649F6627B00DA11D661F75
:10373000829F2227B00DA11D621F739FB00DA11D96
:10374000621F839FA00D611D221F749F3327A00D50
:10375000611D231F849F600D211D822F762F6A2FEC
:1037600011249F5750409AF0F1F088234AF0EE0F51
:10377000FF1FBB1F661F771F881F91505040A9F77E
:103780009E3F510580F00C94DA1B0C94251C5F3F82
:10379000E4F3983ED4F3869577956795B795F795BA
:1037A000E7959F5FC1F7FE2B880F911D9695879532
:1037B00097F9089597F99F6780E870E060E00895B1
:1037C0009FEF80EC089500240A9416161706180639
:1037D0000906089500240A94121613061406050615
:1037E0000895092E0394000C11F4882352F0BB0FA6
:1037F00040F4BF2B11F460FF04C06F5F7F4F8F4F09
:103800009F4F089557FD9058440F551F59F05F3F43
:1038100071F04795880F97FB991F61F09F3F79F0F2
:1038200087950895121613061406551FF2CF469574
:10383000F1DF08C0161617061806991FF1CF8695F6
:103840007105610508940895E894BB2766277727DA
:10385000CB0197F90895052E97FB1EF400940E9462
:10386000421C57FD07D00E94941C07FC03D04EF465
:103870000C94421C50954095309521953F4F4F4FE9
:103880005F4F089590958095709561957F4F8F4F0C
:103890009F4F08950E94B61CA59F900DB49F900D58
:1038A000A49F800D911D11240895B7FF0C944A1C0C
:1038B0000E944A1C821B930B08952F923F924F92B5
:1038C0005F926F927F928F929F92AF92BF92CF92B0
:1038D000DF92EF92FF920F931F93CF93DF93CDB7B9
:1038E000DEB7CA1BDB0B0FB6F894DEBF0FBECDBF31
:1038F00009942A88398848885F846E847D848C8402
:103900009B84AA84B984C884DF80EE80FD800C810A
:103910001B81AA81B981CE0FD11D0FB6F894DEBFED
:103920000FBECDBFED010895A1E21A2EAA1BBB1B4D
:10393000FD010DC0AA1FBB1FEE1FFF1FA217B3077B
:10394000E407F50720F0A21BB30BE40BF50B661F91
:10395000771F881F991F1A9469F760957095809555
:1039600090959B01AC01BD01CF010895A29FB001CC
:10397000B39FC001A39F700D811D1124911DB29FA3
:10398000700D811D1124911D089511E0C6E3D1E051
:1039900004C0FE010E947D172196C733D107C9F7E5
:0439A000F894FFCFC9
:1039A400FFFFFFFF00E10000000000000000BD0772
:1039B40080000100000000FC121212FC000000FE56
:1039C4009292927C0000007C82828244000000FE7D
:1039D4008282827C000000FE92929292000000FE9D
:1039E400121212020000007C82A2A264000000FEF7
:1039F400101010FE0000000000FE00000000006037
:103A04008080807E000000FE10284482000000FEBA
:103A140080808080000000FE040804FE000000FE98
:103A2400081020FE0000007C8282827C000000FEE0
:103A34001212120C0000007C82A2C27C800000FEE4
:103A44001232528C0000004C9292926400000002E8
:103A540002FE02020000007E8080807E0000003EA4
:103A64004080403E000000FE402040FE000000C6B2
:103A7400281028C60000000608F00806000000C24E
:103A8400A2928A8600000004847404140C000020AE
:103A94002010F8040200001C8486443C00000084CA
:103AA40084FC8484000000482898FE0808000084F0
:103AB400443E04847C000010141E74941000001012
:103AC4008E84443C000000108E887808080000842E
:103AD400848484FC000000083E88887E08000088F6
:103AE400928440201800008444342CC00000000854
:103AF4007E8884A49C0000049880403C0000001050
:103B04008E94643C0000001094947C121000000811
:103B1400908488403C0000109494741410000000B9
:103B2400FE1010200000008888483E08080000802D
:103B340084848484800000849454245C8000002461
:103B440024F61C24000000808040300C0000C03C9F
:103B540000000418E000007E8888888400000004C7
:103B64008484443C000000201008102040000064BD
:103B740004FE0464000000041424C4241C00000097
:103B84004A4A9494000080C0B88640608000008057
:103B94004828106E000000147C94949400001012C5
:103BA4001CE804241C0000808484FC808000000045
:103BB400949494FC000000080A8A8A4A38000000A1
:103BC4009E80403E000000C03C00FE80403000006B
:103BD400FE804030000000FC848484FC0000001C53
:103BE400048484443C0000149494543C00000084F5
:103BF40088804020180000001010101010000000F1
:103C04001000504020000000107810301000000018
:103C1400405070400000000000547C000000000090
:103C240000000600060000000000040A0400000072
:103C3400FE8282FE000000000084FE80000000007E
:103C4400F292929E00000000929292FE00000030D8
:103C54002824FE20000000009E9292F20000000042
:103C6400FE9292F2000000000E0202FE000000002C
:103C7400FE9292FE000000009E9292FE0000000060
:103C840000DFDF00000000204440404420001818FA
:103C940018FFFF181818824522100844A2413C421C
:103CA400B1D5D5B9423C00000601A1110E000205B0
:103CB400027C8282824402050200000000001C3E55
:103CC4007EFCFC7E3E1CC0E0E07F062418007E469D
:103CD4004A52524A467E3C42819F9191423C3C4228
:103CE400A1918985423C404E91F595514E20080C96
:103CF4000E7F8E4C080040AC92B24CA010000048DD
:103D0400FE24247F120000C1808100000000000016
:103D14000007098308D008AE08C2084E0900000055
:103D2400007609CB096101520A700A8C090000006F
:103D3400000C02F801F101EE01EB01EA01312E3130
:083D44002E313033000D0A009E
:00000001FF
